:020000040800F2
:10000000A8090220B1020008753500086B34000809
:100010007135000823120008CD41000800000000DF
:100020000000000000000000000000005136000841
:100030008913000800000000B135000809370008E6
:10004000CB020008CB020008CB020008CB0200085C
:10005000CB020008CB0200088B130008CB0200087B
:10006000A1130008AB130008CB020008CB02000864
:10007000CB020008CB020008CB020008CB0200082C
:10008000CB020008CB020008CB020008CB0200081C
:10009000CB020008CB020008CB020008CB0200080C
:1000A000CB020008CB020008CB020008CB020008FC
:1000B000CB02000825380008CB020008CB0200085C
:1000C000CB020008CB020008CB020008CB020008DC
:1000D000CB0200087D410008CB020008CB020008DB
:1000E00095130008CB020008CB020008CB020008E1
:1000F000CB020008CB020008CB020008CB020008AC
:10010000CB020008CB020008CB020008CB0200089B
:10011000CB020008CB020008CB020008CB0200088B
:10012000CB020008CB020008CB020008CB0200087B
:10013000CB020008CB020008CB020008CB0200086B
:10014000CB020008CB020008CB020008CB0200085B
:10015000CB020008CB020008CB020008CB0200084B
:10016000CB020008CB020008CB020008CB0200083B
:10017000CB020008CB020008CB0200080000000000
:10018000CB020008CB020008CB020008CB0200081B
:10019000CB020008CB020008CB020008CB0200080B
:1001A000CB020008CB020008CB020008CB020008FB
:1001B000CB020008CB020008CB020008CB020008EB
:1001C000CB020008CB02000800000000CB020008B0
:1001D000CB020008CB020008CB020008CB020008CB
:1001E000CB020008CB020008CB020008CB020008BB
:1001F000CB020008CB02000800F002F800F049F83A
:100200000AA090E8000C82448344AAF10107DA4571
:1002100001D100F03EF8AFF2090EBAE80F0013F07A
:10022000010F18BFFB1A43F0010318474C420000AE
:100230006C420000103A24BF78C878C1FAD852073F
:1002400024BF30C830C144BF04680C607047000050
:100250000023002400250026103A28BF78C1FBD8CF
:10026000520728BF30C148BF0B607047662904F0B1
:100270008E80002070471FB504F084F800F09EFACD
:1002800004000020002104F067F8E0601FBD10B5F5
:1002900010BD00F0ABFB1146FFF7EDFF03F0FAFFD6
:1002A00000F0C9FB03B4FFF7F2FF03BC03F0A8FFA3
:1002B0000948804709480047FEE7FEE7FEE7FEE7FA
:1002C000FEE7FEE7FEE7FEE7FEE7FEE70448054936
:1002D000054A064B7047000011370008F901000875
:1002E000A8030220A8090220A8050220A8050220D0
:1002F000704700000FB4044910B503AA029800F03B
:100300004BFA10BC5DF814FB080002202DE9F04107
:100310000E460446002020622046E168884730B33C
:10032000252805D0D4E901219047206A401CF2E736
:10033000E168204600278847050018D0A5F1410054
:10034000192802D820354FF4006732462946204646
:100350002760FFF78BFF40B1012804D0F61D26F07F
:1003600007060836D8E7361DD6E72846DAE7206ABA
:10037000BDE8F081704770477047704770472DE9BE
:10038000FF4F0C461E464FF0FF378BB0D2E90001FD
:10039000DDF860800A908A46C1F30A5505B93D46EA
:1003A000002108464FF00000BAF1000F00F44000B1
:1003B00005DA00EB80004FF4400101EA50004FEAFB
:1003C0009059B9F1010F00DDB9460A9850EA4A0088
:1003D0000ED044F61050A5F2FF3545432F14B8F166
:1003E000000F1ED07542291E1EDDC9F100021CE05F
:1003F000B8F1010F4FF0000001D0302103E0F243CB
:1004000005E02154401CB042FBDB304600220021B5
:1004100021540B99C1F80880C1E900200FB0BDE854
:10042000F08FBD1B6D1CDEE74A4600DA694206A864
:1004300000F066FA06AB93E8070003AB83E8070019
:1004400050460A9900F032FB8DE80700A0F50050F5
:100450001F3800900398002D09DD42F21F014A4623
:10046000084403A90390684600F091FD08E0A0F558
:1004700000504A461F3803A90390684600F09BFDD0
:100480008DE807000004000C03D04FF0FF30410856
:1004900000E01046B8F1000F03D00022009215468C
:1004A0001EE0751E05D400F08DF9303262556D1EC8
:1004B000F9D5B3460122084302D000227F1C04E094
:1004C0002078302801D100227F1E002A099786D08B
:1004D0001DE0112D07DA00F075F9303262556D1C00
:1004E00050EA0102F5D1084302D00098C8B10EE0ED
:1004F0000021681E05E0235C625C63542254401EA8
:10050000491C8142F7DBAB46A81B401E0990002026
:1005100004F80B000B98099AC0F80880C0E9002B7A
:100520007CE711264FF0000859E72DE9F04F884687
:100530000446D21D22F0070191B0D1E90001CDE9B6
:100540000A0103F045FE02460B98C00F01D02D2092
:1005500007E02068810701D52B2002E0202101EA75
:10056000C000032A099001D0072A05DB0346414653
:10057000204600F085F90BE12078800601D5E0697E
:1005800000E00620B8F1650F814606D0B8F1660F8D
:1005900018D0B8F1670F70D131E00020B9F1110F18
:1005A000009001DB112301E009F101030AAA01A96E
:1005B0000CA8FFF7E4FEDDE90C70002609F1010547
:1005C000834647E001204B4600904FF000470AAABF
:1005D00001A90CA8FFF7D3FEDDE90DB00C995D462B
:1005E000002610B909F101000D18B9EB050003D47C
:1005F000C0F1FF3609F10105A5EB09002BE0B9F1C7
:10060000010F01DA4FF001090020B9F1110F00903C
:10061000484601DD112300E003460AAA01A90CA8FF
:10062000FFF7ADFEDDE90C704D46002683462078CD
:1006300000070AD4AB4500DA5D4601A8012D04DDB0
:10064000411911F8011C302907D04F4502DA17F182
:10065000040F04DA012082460FE06D1EEEE7002F42
:1006600002DCED1B3E4403E0781CA84200DD7D1C4B
:10067000B81B00F1010A4FF000472078000703D4AF
:10068000AA4501DB4FF0FF3A0021B7F1004F0DF111
:1006900043088DF8431024D002202B23002F01DAC9
:1006A0007F422D230A21021EA0F1010000DC5FB170
:1006B00097FBF1FC97FBF1F201FB1C7C17460CF158
:1006C000300C08F801CDEEE7A8F101000370218895
:1006D000090501D5452100E06521A0F1010800F8D8
:1006E000011C09980FA9A1EB0807FF1D00B101200B
:1006F000411901EBEA70A1693844081A401EA06153
:100700002078C00602D42046AFF30080099828B1B3
:10071000D4E901219047206A401C20622078C0065D
:1007200022D52046AFF300801EE0002E04DBB34547
:1007300002DD01A8805D00E03020D4E9012190476E
:10074000206A401C2062761CAAF101005FEA000AC0
:100750000AD100F033F8C0680168405CD4E9012197
:100760009047206A401C2062281EA5F10105DCDCB0
:1007700007E0D4E9012118F8010B9047206A401CDA
:100780002062381EA7F10107F3DC2046AFF300809A
:10079000032011B043E60000074B70B50D467B44C3
:1007A00000F05BF80446284600F018F910B14FF04D
:1007B000FF3070BD204670BDD73A0000004870473A
:1007C0006803022030B5B0F10A024FEA900E71F1D1
:1007D00000034EEA817EB0EB0E0061EB91014FEA1F
:1007E000101E4EEA017E10EB0E0041EB11114FEA94
:1007F000102E4EEA016E10EB0E0041EB11214FEA74
:10080000104E4EEA014E10EB0E0041EB1141401824
:1008100041F100014FEAD00040EA41704FEAD101B6
:1008200010EB80054FEA810444EA907444EB010424
:100830006D1944EB0404521BA3414FF0000348BF61
:100840000A3200D530BD401C41F1000130BD00002E
:1008500001694A1C02610878704700B58FB0CDE984
:1008600001310021059105497944CDE90310114674
:100870006846FFF74BFD0FB000BD0000E5FFFFFF2E
:100880002DE9F0411F46044603260168072A01F4BA
:10089000006004DB08B116A505E016A503E008B169
:1008A00015A500E015A521F010002060A069C01E6C
:1008B000A0610FB1401EA0612046AFF300804FB190
:1008C000D4E9012138469047206A401C2062C01CB0
:1008D000206206E0206AFAE7D4E9012115F8010B4D
:1008E0009047761EF8D22046AFF30080BDE8F08135
:1008F0004E414E006E616E00494E4600696E6600C4
:100900002DE9F047814616468AB0334878440DC831
:100910008DE80D0030487844801C03AC0DC884E895
:100920000D0041F69B300844372190FBF1F290FB1B
:10093000F1F5A5F1800501FB12041B3C02D56442D0
:10094000012000E00020DFF890A080460027FA4454
:10095000AAF1BE0A0DE0E00709D03246684607EB6F
:1009600047010AEB810100F026FB8DE807006410C7
:100970007F1C002CEFD1184F7F44AC3F18E0E807F4
:1009800014D007EB04100DF1180A90E80E008AE865
:100990000E00C068F04201D198190890324606A9AD
:1009A00003A800F008FB03AB83E807006D10641C8C
:1009B000002DE4D132466946B8F1000F03A802D0F9
:1009C00000F0E5FA01E000F0F6FAC9E90001C9F823
:1009D00008200AB0BDE8F087503B0000007B00F023
:1009E0008000704700487047480302207546FFF7B3
:1009F000F9FFAE4605006946534620F007008546DC
:100A000018B020B5FFF762FCBDE820404FF00006AB
:100A10004FF000074FF000084FF0000B21F00701E6
:100A2000AC46ACE8C009ACE8C009ACE8C009ACE829
:100A3000C0098D4670470446AFF300802046FFF79B
:100A400031FC00004FF0013C50F8042B51F8043BFE
:100A50009A4215D1A2EB0C03934313EACC130BD1AA
:100A600050F8042B51F8043B9A4209D1A2EB0C0335
:100A7000934313EACC13E7D04FF00000704700BF58
:100A8000D01A01BAB1FA81F101F0180122FA01F08D
:100A9000CB40C1F12001DBB2C0B2C01A2CFA01F385
:100AA000D11A914311EAC311E6D170475FEA400CB5
:100AB00008BF91F0000F4FEA8C234FEAC12243EAAE
:100AC00051514FEA1C5018BF00F5F0404FEA30007A
:100AD00018BF41F000415FEA6C5C00F02980BCF176
:100AE000FF3F08BF40F080407047130C06BF120460
:100AF0004FF0100C4FF0000C130E04BF12020CF15B
:100B0000080C130F04BF12010CF1040C930F04BF67
:100B100092000CF1020CD30F04BF52000CF1010C37
:100B200011464FF00002A0F11F00A0EB0C0070472F
:100B300011F0004F08BF704731F000413FF4D5AFCE
:100B40000B0C06BF09044FF0100C4FF0000C0B0EFD
:100B500004BF09020CF1080C0B0F04BF09010CF1D2
:100B6000040C8B0F04BF89000CF1020CCB0F04BFE7
:100B700049000CF1010CCCF12003A0EB0C0022FA8F
:100B800003F302FA0CF241EA030100F1010070479D
:100B900020F07F4C80EA030023F07F47ACEB070393
:100BA00003F57C5300F0004003F1FF032DE9804979
:100BB0004FEA154B09B44FEA144325EA0B4E24EAD9
:100BC00003480FF2042606EB132749083E785FEA34
:100BD000320203FB0667C7F5000707FB06F64FEA7C
:100BE00054374FEAD64606F1020607FB066CCCF1F5
:100BF000005C4FEA1C472CEA074C07FB06F40CFB91
:100C000006F504EB15464FEA961634BF00204FF068
:100C100000404FEAD13706FB07FC4FEA1C4C0CFBA7
:100C20000BF7D21B03FB0CF761EB07010CFB0EF774
:100C3000B0EB074072EB17420CFB08F734BFA2EB96
:100C40000742B2EB074261EB17414FEA0C444FEA0F
:100C5000910706FB07FC4FEA1C4C0CFB0BF7B0EBB3
:100C6000C74072EB573203FB0CF734BFA2EBC7420D
:100C7000B2EBC74261EB57310CFB0EF7B0EBC7008C
:100C800072EB57720CFB08F734BFA2EBC702B2EB52
:100C9000C70261EB5771039F4FEA816141EA9211EC
:100CA00004EBCC044FEAD1374FEA826206FB07FC23
:100CB00042EA90124FEA80604FEA1C4C0CFB0BF7A3
:100CC000D21B03FB0CF761EB07010CFB0EF7B0EB3B
:100CD000074072EB17420CFB08F734BFA2EB074248
:100CE000B2EB074261EB17414FEA8C554FEA91078F
:100CF00004EB9C2406FB07FC4FEA1C4C0CFB0BF797
:100D0000B0EBC74072EB573203FB0CF734BFA2EBDA
:100D1000C742B2EBC74261EB57310CFB0EF7B0EBA9
:100D2000C70072EB57720CFB08F734BFA2EBC70287
:100D3000B2EBC70261EB577115EB4C254FEA8161AD
:100D400041EA92114FEA82624FEAD13742EA9012A9
:100D500006FB07FC44F100044FEA80604FEA1C4C9C
:100D60000CFB0BF7D21B03FB0CF761EB07010CFB31
:100D70000EF7B0EB074072EB17420CFB08F734BFDD
:100D8000A2EB0742B2EB074261EB174115EB1C15D2
:100D90004FEA813141EA92414FEA823242EA90427F
:100DA0004FEA80304FEA0C7644F1000448EA0343EE
:100DB0004EEA0B484FF0000EB2EB080C71EB030744
:100DC00024BF624639464EEB0E0E4FF0000B001862
:100DD000524149414BEB0B0BB2EB080C71EB030793
:100DE0007BF1000B24BF624639464EEB0E0E4FF0EE
:100DF000000B0018524149414BEB0B0BB2EB080CB6
:100E000071EB03077BF1000B24BF624639464EEBC2
:100E10000E0E51EA020718BF46F0010616EB0E76D9
:100E200055F1000254F1000103D5BDE88901BDE888
:100E30000088BDE88901BDE80048B619524141EB80
:100E40000101A3F10103704780807F7E7D7C7B7A66
:100E50007978777676757473727171706F6E6E6D66
:100E60006C6C6B6A6A69686867666665646463630C
:100E700062616160605F5F5E5E5D5D5C5C5B5B5A92
:100E80005A595958585757565655555554545353FF
:100E900052525251515050504F4F4F4E4E4D4D4D5A
:100EA0004C4C4C4B4B4B4A4A4A49494948484847A5
:100EB00047474746464645454544444444434343E3
:100EC0004342424242414141002B26D4770021D087
:100ED0001CB54FEA370703B44FF010004FF0100174
:100EE0004FF000000FBCBDE810400BF1010BBBF14F
:100EF000010F08BF5FEA170722BF12F1010211F1CB
:100F000001014FF0004143F1000300F0004043EACB
:100F100000007047F9D35708DAE746EA064613F1AE
:100F2000400F4FEA16461FDD13F1200FDFBF1643B7
:100F30000A46002120335B42C8D0C3F1200746EAAD
:100F4000064602FA07F74FEA164646EA0706C3F1D5
:100F5000200722FA03F201FA07F721FA03F14FF012
:100F6000000342EA0702B1E746EA020646EA0646FD
:100F70004FEA164646EA0106BCBF46EA0646360C6C
:100F80004FF000034FF000024FF000019EE72DE903
:100F9000C048934630B491E8380007C831EA400CA5
:100FA00048BF34EA430C03D5FFF7F2FDFFF78CFF8F
:100FB000F0BCBDE800882DE9C048934630B491E804
:100FC000380007C810F0804F08BF13F0804F03D1DE
:100FD00000F005F8FFF778FFF0BCBDE8008820F0CE
:100FE0007F4780EA030023F07F4C07EB0C03A3F557
:100FF0007C5300F00040A3F1FE0392F0000F00F0DC
:10100000B38095F0000F00F077802DE901494FEA99
:1010100011404FEA144621EA004800FB06FC24EA8E
:10102000064708FB06F607FB08F800FB07F718EB76
:1010300006484CEB164C4FEA124B18EB07484FEAA8
:1010400015464CEB174022EA0B4E0BFB06FC25EA3B
:1010500006470EFB06F607FB0EFE0BFB07F71EEB23
:10106000064E4CEB164C4FF000061EEB074E4CEBB9
:10107000174B18EB0B0840F1000018EB0E0B58EB68
:10108000000840F100008F1A4FF000013CBFC94337
:10109000661B14BFB5EB040C00213CBFC943F61B13
:1010A0004FEA17444EEA8E0E27EA04454FEA1C47E2
:1010B00004FB07622CEA074C05FB07F70CFB05F65F
:1010C00004FB0CFC16EB074642EB174216EB0C46F2
:1010D00042EB1C421BEB060658EB0202414146EA7A
:1010E0009E0601D5BDE80189B619524141EB0101C7
:1010F000A3F10103BDE801894FEA14454FEA114706
:1011000024EA054621EA074C05FB07F406FB07F72E
:101110000CFB06F105FB0CFC11EB074144EB1744FB
:101120004FEA124711EB0C4144EB1C4422EA074CF6
:1011300005FB07F206FB07F70CFB06F605FB0CFCAC
:1011400016EB074642EB174216EB0C4642EB1C45EA
:101150006A1854F1000148BF7047B619524141EB7B
:101160000101A3F10103704795F0000F37D04FEA5A
:1011700011424FEA144721EA024624EA074C02FBD7
:1011800007F106FB07F70CFB06F402FB0CFC14EB63
:10119000074441EB17414FEA154714EB0C4441EB70
:1011A0001C4125EA074C02FB07F506FB07F70CFB81
:1011B00006F602FB0CFC16EB074645EB174516EB53
:1011C0000C4645EB1C42121951F1000148BF704713
:1011D000B619524141EB0101A3F1010370474FEAF7
:1011E00014454FEA114724EA054621EA074C05FB5E
:1011F00007F106FB07F70CFB06F24FF0000605FBB4
:101200000CFC12EB074241EB174112EB0C4251EB85
:101210001C4148BF7047921841EB0101A3F1010343
:10122000704700BFFEE700002DE9F0418AB0044698
:101230000D4616461F46DDF840801A481A490860D8
:101240001A4808631A48486308464760C0F808808F
:10125000C4600661456100218161C16101620121B3
:10126000416200218162C16200F0B4F918B101202D
:101270000AB0BDE8F0810020009001900290039038
:101280000490059006900120079008900E20099088
:101290006946054800F012F908B10220E8E700208D
:1012A000E6E7000000640040BC010220FC010220CF
:1012B000180202202DE9F04107460D46164600248B
:1012C0001248006B06601148006B466000200F4911
:1012D000096B88600D49096BC8600C48006B05619B
:1012E00000BF06E0395D0948006B14300155601CF1
:1012F00084B2AC42F6DB0A21044800F07FFA10B158
:101300000120BDE8F0810020FBE70000BC010220C5
:1013100010B500BF00BF00BF00BF00BFBFF34F8FBD
:1013200000BF00BF00BF00BF00BF00BFBFF36F8F93
:1013300000BF00BF00BF00201149086011480068CD
:1013400040F400300F49086000BF00BF00BFBFF38A
:101350004F8F00BF00BF00BF00BF00BF00BFBFF383
:101360006F8F00BF00BF00BF00BF02F023F9044829
:101370004C30006840F0040001494C31086010BD59
:1013800050EF00E014ED00E0704710B5012000F0D0
:1013900027FD10BD10B54FF4005000F021FD10BD29
:1013A00010B5042000F01CFD10BD10B5082000F0A1
:1013B00017FD10BD00B587B000BF3A48006840F087
:1013C0000100384908600846006800F001000190FB
:1013D00000BF00BF00BF0846006840F0040008607E
:1013E0000846006800F00400019000BF00BF00BF85
:1013F0000846006840F0800008600846006800F079
:101400008000019000BF00BF00BF26481030006878
:1014100040F000702349103108600846006800F071
:101420000070019000BF00BF012002901E48039091
:101430000220049002A91D4800F0E0FC42F22000C6
:1014400002901B4803900120049002A9194800F063
:10145000D5FC0C20029002A9174800F0CFFC012215
:101460000021062000F028FE062000F018FE0122D0
:101470000021082000F020FE082000F010FE0222CB
:101480000021092000F018FE092000F008FE0322C8
:101490000021282000F010FE282000F000FE07B0F8
:1014A00000BD000030380240000011100000024072
:1014B0000000211000080240001C024070B50446E4
:1014C0000A460023157D012000FA05F33F4D2068F0
:1014D000A84201D1014600E03D4901F500710868CC
:1014E00040F001000860086820F47C50086008683B
:1014F000556A40EA05200860C8699843C861A1F5AB
:101500000071D069C8B9D1F80C029843C1F80C0237
:10151000908880B2958940EA054501F510705669BA
:1015200040F83650108880B2158940EA054501F52B
:101530001070566900EBC6004560D069012819D1CA
:10154000D1F80C021843C1F80C02908880B21588BB
:1015500040EA054501F51070566940F8365090890B
:1015600080B2158940EA054501F51070566900EB17
:10157000C6004560906928B9D1F804029843C1F8C3
:10158000040204E0D1F804021843C1F8040210690F
:1015900020B9D1F814029843C1F814021069012847
:1015A00004D1D1F814021843C1F81402106A0128BA
:1015B00004D1D1F81C021843C1F81C02D1F8000272
:1015C00020F00100C1F80002002070BD003400408E
:1015D0000064004070B50446002600250CB90120C7
:1015E00070BD94F8380028B9002084F839002046EE
:1015F00000F0CEF8022084F838002068006820F05F
:101600000200216808602068006840F0010021683D
:10161000086000F00DFD05460EE000F009FD401BDE
:101620000A2809D9032084F8380000BF002084F874
:10163000390000BF0320D3E72068406800F00100B4
:101640000028EAD02068406800F00100002875D02A
:10165000A069012806D12068006840F08000216858
:10166000086005E02068006820F0800021680860BC
:10167000E069012806D12068006840F04000216838
:10168000086005E02068006820F0400021680860DC
:10169000206A012806D12068006840F020002168F7
:1016A000086005E02068006820F0200021680860DC
:1016B000606A012806D12068006840F010002168A7
:1016C000086005E02068006820F0100021680860CC
:1016D000A06A012806D12068006840F0080021684F
:1016E000086005E02068006820F0080021680860B4
:1016F000E06A012806D12068006840F004002168F3
:10170000086005E02068006820F004002168086097
:10171000D4E902010843216908436169084361680B
:10172000491E08432168C8612068006820F0010054
:101730002168086000F07CFC05460FE01AE000F02C
:1017400077FC401B0A2809D9032084F8380000BF21
:10175000002084F8390000BF032041E7206840687A
:1017600000F001000028EAD12068406800F0010084
:1017700000B90126012E06D10020E063012084F883
:10178000380000202CE7042084F83800012027E7E7
:1017900010B586B0044600BF1648006840F00070DF
:1017A000144908600846006800F00070009000BF0F
:1017B00000BF00BF0F481038006840F001000D491D
:1017C000103908600846006800F00100009000BF72
:1017D00000BF4FF4C05001900220029001200390FE
:1017E000022004900920059001A9034800F006FB9F
:1017F00006B010BD40380240000002402DE9F04123
:1018000004460E46042500272068806800F08060AA
:10181000B0F1806F0DD02068806800F00060B0F1FA
:10182000006F06D02068806800F08050B0F1805FC3
:101830007ED100BF94F83900012802D10220BDE812
:10184000F081012084F8390000BF94F83800222884
:1018500003D1322084F8380002E0122084F83800E6
:101860002068806800F08060B0F1806F01D10025B1
:1018700009E02068806800F00060B0F1006F01D1DD
:10188000012500E00225206800F5C07000EB05107E
:10189000006800F00101206800F5C07000EB051041
:1018A0000160206B806898B9206800F5C07000EB7B
:1018B00005100068216BC968226B128841EA425109
:1018C0000843216801F5C07101EB0511086015E0BE
:1018D000206800F5C07000EB05100068216B896876
:1018E000226B526841EAC201226BD268114308435D
:1018F000216801F5C07101EB05110860206B007CC7
:1019000000F00F00216B0861206800F5C07000EB4B
:101910000510406820F00F01206800F5C07000EB52
:1019200005104160206800F5C07000EB051000E074
:1019300088E04068216B09690843216801F5C0719E
:1019400001EB05114860206BC07D0106206B807D96
:1019500041EA0041206B407D41EA0020216B097D76
:101960000843216801F5C07101EB05118860206B07
:10197000C07E0106206B807E41EA0041206B407EE4
:1019800041EA0020216B097E0843216801F5C071FE
:1019900001EB0511C860206800F5C07000EB051070
:1019A000006840F00101206800F5C07000EB0510F0
:1019B000016000F03DFB074611E0701C78B126B1D4
:1019C00000F036FBC01BB04209D9032084F8380070
:1019D00000BF002084F8390000BF03202FE74DB975
:1019E000206880681A490840884201D1012016E029
:1019F000002014E0012D09D12068806815490840B5
:101A0000884201D101200AE0002008E020688068B7
:101A100011490840884201D1012000E0002000283F
:101A2000CBD094F83800322803D1222084F8380033
:101A300002E0012084F8380000BF002084F839005B
:101A400000BFFCE6042084F838000120F7E600001F
:101A5000030000040003000800000310014691F891
:101A60003500022803D080204865012070470520FA
:101A700081F835000868006820F001000A681060ED
:101A80000020F3E770B5A0B00546BC4903C9CDE915
:101A90001E01BA49083103C9CDE91C01B8A103C927
:101AA000CDE91A01B8A103C9CDE91801B349103134
:101AB00003C9CDE91601B149183103C9CDE91401B3
:101AC000AE49203103C9CDE91201AC49283103C91F
:101AD000CDE91001AEA103C9CDE90E01AEA103C944
:101AE000CDE90C01AEA103C9CDE90A01A34930310A
:101AF00003C9CDE90801ACA103C9CDE90601ACA138
:101B000003C9CDE90401ACA103C9CDE90201ACA12F
:101B100003C9CDE90001322002F07EFB012D07D080
:101B2000042D67D0082D7AD0B5F5005F61D1FDE0B6
:101B30000121A54800F06EFA01285AD140F2016453
:101B4000224608211EA8FFF7B5FB0646012002F039
:101B500063FB224608211CA8FFF7ACFB06460120C8
:101B600002F05AFB224608211AA8FFF7A3FB0646FB
:101B7000012002F051FB2246082118A8FFF79AFB2A
:101B80000646012002F048FB2246082116A8FFF76E
:101B900091FB0646012002F03FFB8C48007808B913
:101BA000012000E00020894908700846007808B943
:101BB000012000E00020864908708448007828B1A0
:101BC00001221146834800F02DFA04E00022012191
:101BD000804800F027FA7E48007828B101220221CF
:101BE0007C4800F01FFA04E000220221794800F04E
:101BF00019FAC0E00421784800F00CFA08BB40F262
:101C00000144012002F008FB2246062104A8FFF748
:101C100051FB06466D48007810B9012001E011E043
:101C200000206A4908700846007828B10122114650
:101C3000684800F0F7F904E000220121654800F04F
:101C4000F1F998E00821644800F0E4F900286CD12B
:101C500040F201642246082114A8FFF72BFB064638
:101C6000012002F0D9FA2246082112A8FFF722FB30
:101C70000646012002F0D0FA2246082110A8FFF7FC
:101C800019FB0646012002F0C7FA224608210EA8D9
:101C9000FFF710FB0646012002F0BEFA224608219B
:101CA0000CA8FFF707FB0646012002F0B5FA224612
:101CB00008210AA8FFF7FEFA0646012002F0ACFA56
:101CC0002246082108A8FFF7F5FA0646012002F08F
:101CD000A3FA3E48007808B9012000E000203B4903
:101CE00008703B48007808B9012000E0002038491E
:101CF00008703648007828B101221146354800F0B6
:101D000091F904E000220121324800F08BF93048BB
:101D1000007828B1012202212E4800F083F904E066
:101D2000002202212B4800F07DF924E04FF40051FD
:101D30002A4800F06FF9E8B940F201542246062122
:101D40006846FFF7B7FA06462148007808B901202F
:101D500000E000201E4908700846007828B10122E2
:101D600002211C4800F05EF904E00022022119481B
:101D700000F058F900BF00BF20B070BDAC430008B0
:101D800023FF60000000000023002100A086010066
:101D900023816000400D060023836000A0860100BF
:101DA000237A600080C7FEFF0500409C0000000011
:101DB0007F00409C000000000F00400D0300000069
:101DC0000F00A08601000000000002404900022030
:101DD0004800022000040240001C024000080240AB
:101DE00010B5044604480068204020B10248046051
:101DF0002046FFF747FE10BD143C0140F8B50246EF
:101E00000B46002100250024002000BFE4E001264D
:101E100006FA01F51E6806EA0504AC4271D15E6857
:101E2000022E02D05E68122E13D1CF0802F12006D6
:101E300056F827004E07F70E0F26BE40B0434F0757
:101E4000FF0E1E69BE403043CF0802F1200646F85F
:101E5000270010684F000326BE40B0431E7906F0ED
:101E600003064F00BE40304310605E68012E08D06C
:101E70005E68022E05D05E68112E02D05E68122EBA
:101E800013D190684F000326BE40B0434F00DE6878
:101E9000BE4030439060506801268E40B0431E79AA
:101EA000C6F300168E4030435060D0684F000326C2
:101EB000BE40B0434F009E68BE403043D0605E6875
:101EC00006F08056B6F1805FA8D100BF444E366858
:101ED00046F48046424F3E603E46366806F48046F1
:101EE000009600BF00BF3F4E8F0856F827008E07B0
:101EF000370F0F26BE40B0433B4EB24202D1002600
:101F00002EE068E0394EB24201D1012628E0384E79
:101F1000B24201D1022623E0364EB24201D103265D
:101F20001EE0354EB24201D1042619E0334EB242D2
:101F300001D1052614E0324EB24201D106260FE04F
:101F4000304EB24201D107260AE02F4EB24201D1F3
:101F5000082605E02D4EB24201D1092600E00A26EE
:101F60008F073F0FBE4030431E4E8F0846F82700B4
:101F7000274E3068A0435E6806F48036B6F5803F91
:101F800000D12043224E3060361D3068A0435E6889
:101F900006F40036B6F5003F00D120431C4E361D36
:101FA0003060361D3068A0435E6806F48016B6F5D2
:101FB000801F00D12043164E08363060361D306831
:101FC000A0435E6806F40016B6F5001F00D120435A
:101FD0000F4E0C363060491C1029FFF418AFF8BDC5
:101FE000443802400838014000000240000402402A
:101FF00000080240000C02400010024000140240A1
:1020000000180240001C0240002002400024024050
:10201000003C0140024613690B400BB1012000E077
:10202000002070470AB1816101E00B0483617047B1
:102030000148006870470000100002200248006854
:10204000401C0149086070471000022010B5084884
:10205000006840F4007006490860052000F06AF846
:102060000F2000F007F800F019F8002010BD000064
:10207000003C024070B50446074800684FF47A718E
:10208000B0FBF1F5284600F093FC00222146501EDB
:1020900000F012F8002070BD00000220704700BF61
:1020A00000F01F02012191404209920002F1E0225A
:1020B000C2F8001100BF70472DE9F05F80460D4661
:1020C0001646002701F058FA074639462A46334695
:1020D00001F00700C0F1070ABAF1040F02D94FF06E
:1020E000040A01E0C0F1070AD14600F1040ABAF17E
:1020F000070F02D24FF0000A01E0A0F1030AD44614
:102100004FF0010A0AFA09FAAAF1010A0AEA020AD8
:102110000AFA0CFA4FF0010B0BFA0CFBABF1010BB6
:102120000BEA030B4AEA0B042146404601F02CFA65
:10213000BDE8F09F00BF00F00702064B19684FF69C
:10214000FF031940044B0B4343EA0221014B196082
:1021500000BF70470CED00E00000FA0538B5002420
:1021600000BF2048006840F080501E4908600846C3
:10217000006800F08050009000BF00BF1A4800685F
:1021800040F4803018490860FFF752FF044607E02A
:10219000FFF74EFF001BB0F57A7F01D9032038BD51
:1021A0001148406800F48030B0F5803FF0D10E480F
:1021B000006840F400300C490860FFF739FF04461E
:1021C00007E0FFF735FF001BB0F57A7F01D9032048
:1021D000E5E70548406800F40030B0F5003FF0D175
:1021E0000020DCE7403802400070004070B5044633
:1021F0000D4600266648006800F00F00A8420ED287
:102200006348006820F00F002843614908600846D1
:10221000006800F00F00A84201D0012070BD2078B6
:1022200000F00200022807D15A48006820F0F000B0
:10223000A168084357490860207800F00100002891
:1022400060D06068012807D1524808380068C0F3A0
:102250004040A0B90120E1E76068022807D14D485D
:1022600008380068C0F3406048B90120D6E7494803
:1022700008380068C0F3400008B90120CEE745489F
:10228000006820F003006168084342490860FFF7D6
:10229000CFFE06466068012810D108E0FFF7C8FEAF
:1022A000801B41F28831884201D90320B6E73948C2
:1022B000006800F00C000428F0D123E060680228D8
:1022C00010D108E0FFF7B4FE801B41F2883188424C
:1022D00001D90320A2E72F48006800F00C0008286D
:1022E000F0D10FE008E0FFF7A3FE801B41F2883138
:1022F000884201D9032091E72648006800F00C00CD
:102300000028F0D12248006800F00F00A8420ED942
:102310001F48006820F00F0028431D490860084648
:10232000006800F00F00A84201D0012076E7207875
:1023300000F00400042807D11648006820F4E0509B
:10234000E168084313490860207800F00800082875
:1023500008D11048006820F46040216940EAC100BB
:102360000C49086000F04EF80A49096801F0F001D4
:10237000F02292FAA2F2B2FA82F2D140064A515CFD
:10238000C840064908600F20FFF774FE002045E7AB
:10239000003C02400838024092430008000002203E
:1023A00001480068704700000000022000B5FFF7F8
:1023B000F7FF0749096801F4E0514FF4E05292FA3F
:1023C000A2F2B2FA82F2D140024A515CC84000BD8A
:1023D00008380240A243000800B5FFF7E1FF0749B3
:1023E000096801F460414FF4604292FAA2F2B2FA35
:1023F00082F2D140024A515CC84000BD0838024018
:10240000A243000870B50021002200230020274CC1
:10241000246804F00C0424B1042C04D0082C41D10D
:1024200003E0234840E023483EE0204C241F24687A
:1024300004F03F011D4C241F246804F4800484B17F
:102440001C4CB4FBF1F5194C241F246847F6C076E8
:10245000344096FAA6F6B6FA86F6F44005FB04F286
:102460000FE0134CB4FBF1F5104C241F246847F621
:10247000C076344096FAA6F6B6FA86F6F44005FB26
:1024800004F20A4C241F246804F440344FF440350D
:1024900095FAA5F5B5FA85F5EC40641C6300B2FB2E
:1024A000F3F001E0024800BF00BF70BD08380240F1
:1024B0000024F40040787D0138B5044600252078DA
:1024C00000F00100002871D0FE48006800F00C0008
:1024D00004280DD0FB48006800F00C00082813D138
:1024E000F848001F006800F48000B0F5800F0BD1A1
:1024F000F44808380068C0F34040002869D060689C
:10250000002866D1012038BD00BF6068B0F5803F6B
:1025100008D1EC480838006840F48030E9490839AF
:1025200008602EE0606868B9E6480838006820F462
:102530008030E449083908600846006820F48020AB
:1025400008601EE06068B0F5A02F0DD1DD480838A6
:10255000006840F48020DB490839086008460068BC
:1025600040F4803008600CE0D6480838006820F459
:102570008030D449083908600846006820F480207B
:10258000086000BF606890B1FFF752FD054606E0A5
:10259000FFF74EFD401B642801D90320B3E7C9486B
:1025A00008380068C0F340400028F1D011E0FFF780
:1025B0003FFD054606E0FFF73BFD401B642801D9BF
:1025C0000320A0E7BF4808380068C0F34040002857
:1025D000F1D1207800F00200022873D1B9480068D8
:1025E00000F00C0058B1B748006800F00C00082853
:1025F00021D1B448001F006800F48000D8B9B14868
:1026000008380068C0F3400020B1E068012801D01C
:10261000012078E7AB480838006820F0F800F8227D
:1026200092FAA2F2B2FA82F2216991400843A549D6
:102630000839086046E0E06850B3A24808380068EE
:1026400040F001009F4908390860FFF7F1FC05469A
:1026500006E0FFF7EDFC401B022801D9032052E7FA
:10266000984808380068C0F340000028F1D0954829
:102670000838006820F0F800F82292FAA2F2B2FAC4
:1026800082F22169914008438E490839086019E0B7
:102690008C480838006820F001008A490839086031
:1026A000FFF7C6FC054606E0FFF7C2FC401B022808
:1026B00001D9032027E7834808380068C0F34000A9
:1026C0000028F1D1207800F00800082836D1606990
:1026D000D0B17C486C30006840F0010079496C3121
:1026E0000860FFF7A5FC054606E0FFF7A1FC401BCC
:1026F000022801D9032006E772486C300068C0F355
:1027000040000028F1D019E06E486C30006820F0DD
:1027100001006C496C310860FFF78AFC054606E051
:10272000FFF786FC401B022801D90320EBE6654831
:102730006C300068C0F340000028F1D1207800F030
:102740000400042871D100BF5E483830006840F0B2
:1027500080505C49383108600846006800F08050BD
:10276000009000BF00BF5848006840F48070564990
:102770000860FFF75DFC054606E0FFF759FC401BCB
:10278000642801D90320BEE64F48006800F4807039
:102790000028F2D000BFA068012808D1494868305D
:1027A000006840F001004749683108602DE0A068EA
:1027B00068B944486830006820F001004149683138
:1027C00008600846006820F0040008601DE0A0686A
:1027D00005280DD13B486830006840F004003949B5
:1027E000683108600846006840F0010008600CE0AD
:1027F00034486830006820F00100324968310860D0
:102800000846006820F00400086000BFA068A8B176
:10281000FFF70EFC054609E0FFF70AFC401B41F2FA
:102820008831884202D903206DE61BE025486830D4
:102830000068C0F340000028EED013E0FFF7F8FB7B
:10284000054608E0FFF7F4FB401B41F2883188425F
:1028500001D9032057E61B4868300068C0F34000E8
:102860000028EFD1A06988B31648006800F00C007A
:10287000082873D0A069022864D11248083800687B
:1028800020F080700F4908390860FFF7D1FB05463A
:1028900006E0FFF7CDFB401B022801D9032032E6FA
:1028A000084808380068C0F340600028F1D1D4E936
:1028B0000701084347F6C07292FAA2F2B2FA82F216
:1028C000616A04E0083802400070004058E091401E
:1028D00008430122A16AC2EB51014FF4403292FA3F
:1028E000A2F2B2FA82F2914008434FF0706292FA7B
:1028F000A2F2B2FA82F2E16A914008434FF0E0425C
:1029000092FAA2F2B2FA82F2216B914008431D4979
:102910000860081F006840F08070091F0860FFF71A
:1029200087FB054606E0FFF783FB401B022801D921
:102930000320E8E51348001F0068C0F3406000284A
:10294000F1D01DE00F48001F006820F080700D4995
:10295000091F0860FFF76CFB054607E00EE0FFF774
:1029600067FB401B022801D90320CCE50548001F66
:102970000068C0F340600028F1D101E00120C2E509
:102980000020C0E504380240042808D14FF0E021BF
:10299000096941F004014FF0E022116107E04FF0B6
:1029A000E021096921F004014FF0E0221161704734
:1029B00070B504462546681EB0F1807F01D3012022
:1029C0000FE0681E4FF0E02148610F214FF0FF300B
:1029D00000F0DAFD00204FF0E02188610720086157
:1029E000002070BD704770472DE9F04104460D4648
:1029F0004FF000080026002714B90120BDE8F0813F
:102A000094F8390028B9002084F83800204600F0F6
:102A100047F8022084F83900206880681F49084080
:102A200021688860211D206800F030FF2068D0F800
:102A30000880206886692068076A286840EA0808D4
:102A400040F203308643A969A86840EA01200643A2
:102A500040F60C4086434FF2F0008643E969E8688F
:102A600040EA0120064328690001296A40EA013052
:102A7000064327F0220727F088076969686840EA5B
:102A8000011007432068C0F808802068866120682C
:102A90000762012084F839000020AFE7F8FFFEFF4D
:102AA00010B586B004463C49206888422DD100BF4D
:102AB0003A48006840F00800384908600846006855
:102AC00000F00800009000BF00BF00BF334810387E
:102AD000006840F0800031491039086008460068FD
:102AE00000F08000009000BF00BF4FF440600190F4
:102AF0000220029001200390032004900220059000
:102B000001A92748FFF77AF943E02068B0F1804F28
:102B10003FD100BF2148006840F001001F49086014
:102B20000846006800F00100009000BF00BF00BF31
:102B30001A481038006840F0010018491039086040
:102B40000846006800F00100009000BF00BF00BF11
:102B50000846006840F0020008600846006800F07F
:102B60000200009000BF00BF0820019002200290E8
:102B700001200390032004900120059001A9094839
:102B8000FFF73CF94FF40040019001A90648FFF718
:102B900035F906B010BD0000000C0040403802407E
:102BA000001C0240000402400000024030B5044610
:102BB0000D4615B1042D0CD105E00122002120683D
:102BC00000F0D6FE10E001220421206800F0D0FEC3
:102BD0000AE001220021206800F0CAFE012204213F
:102BE000206800F0C5FE00BF00BF2068006840F00C
:102BF000010021680860002030BD000010B52DEDF7
:102C0000028B82B00446002008EE900A08EE100AFB
:102C100023480068406A08EE900A22480068406A2B
:102C200008EE100AB8EEE80B1F4890ED001B30EEDE
:102C3000410B9FED1E1B80EE012B9FED1E0B22EE24
:102C4000000B1E4880ED000BB8EEC80B1C4890ED41
:102C5000001B30EE411B9FED1B2B81EE020B9FED05
:102C6000151B20EE010B194880ED000B90ED000BB9
:102C70008DED000B114890ED000B53EC102B14A0C0
:102C8000FDF738FBB8EEE80B074880ED000BB8EE17
:102C9000C80B0B4880ED000B02B0BDEC028B10BDE1
:102CA00088020220E80202206800022000000000E2
:102CB0000088D340000000000080764058000220C9
:102CC0007000022000000000008813416000022014
:102CD00025662020202025660D0A00002DE9F04100
:102CE00004460D46164600BF94F83800012802D16C
:102CF0000220BDE8F081012084F8380000BF0220E6
:102D000084F8390096B9EB68D5E90012206800F024
:102D10003DFE2068806920F00C00216888612068F1
:102D20008069A9680843216888613DE0042E13D1B9
:102D3000EB68D5E90012206800F072FE2068806917
:102D400020F440602168886120688069A96840EAB1
:102D500001202168886127E0082E12D1EB68D5E9AF
:102D60000012206800F07BFE2068C06920F00C0093
:102D70002168C8612068C069A96808432168C861E2
:102D800012E0EB68D5E90012206800F086FE2068AA
:102D9000C06920F440602168C8612068C069A968E2
:102DA00040EA01202168C861012084F8390000BF91
:102DB000002084F8380000BF00BF9AE710B5044631
:102DC0000CB9012010BD94F8390028B9002084F80E
:102DD0003800204600F00CF8022084F83900211D4C
:102DE000206800F053FD012084F839000020E9E755
:102DF00010B586B0044600BF1A48006840F00200D3
:102E0000184908600846006800F00200009000BF02
:102E100000BF00BF13481038006840F0010011499E
:102E2000103908600846006800F00100009000BFFB
:102E300000BF802001900220029001200390032017
:102E400004900220059001A90748FEF7D7FF02224F
:102E500011461D20FFF730F91D20FFF720F906B0BD
:102E600010BD0000403802400000024030B504466A
:102E70000D4635B1042D0BD0082D10D00C2D1CD1D2
:102E800014E02068C06840F002002168C86015E0C6
:102E90002068C06840F004002168C8600EE0206827
:102EA000C06840F008002168C86007E02068C0687A
:102EB00040F010002168C86000E000BF00BF0122A0
:102EC0002946206800F054FD2068006840F00100A9
:102ED00021680860002030BD10B5044620680069F4
:102EE000C0F34000D8B12068C068C0F34000B0B162
:102EF0006FF0020021680861012020762068806957
:102F000000F0030018B12046FFF778FE05E02046E8
:102F100000F0BEF8204600F0BCF8002020762068C3
:102F20000069C0F38000D8B12068C068C0F3800099
:102F3000B0B16FF00400216808610220207620689B
:102F4000806900F4407018B12046FFF757FE05E095
:102F5000204600F09DF8204600F09BF800202076E7
:102F600020680069C0F3C000D8B12068C068C0F311
:102F7000C000B0B16FF0080021680861042020761D
:102F80002068C06900F0030018B12046FFF736FE44
:102F900005E0204600F07CF8204600F07AF800209A
:102FA000207620680069C0F30010D8B12068C0689E
:102FB000C0F30010B0B16FF0100021680861082064
:102FC00020762068C06900F4407018B12046FFF7F1
:102FD00015FE05E0204600F05BF8204600F059F8A9
:102FE000002020762068006900F0010058B12068B8
:102FF000C06800F0010030B16FF001002168086185
:10300000204600F047F820680069C0F3C01058B1AE
:103010002068C068C0F3C01030B16FF08000216834
:1030200008612046FFF7DEFC20680069C0F300203D
:1030300058B12068C068C0F3C01030B16FF0800094
:10304000216808612046FFF7CDFC20680069C0F3C5
:10305000801058B12068C068C0F3801030B16FF0A4
:10306000400021680861204600F015F820680069DA
:10307000C0F3401058B12068C068C0F3401030B1B0
:103080006FF02000216808612046FFF7ACFC10BDFE
:103090007047704770477047704701460022002311
:1030A00091F8692091F86A3042EA03007047000005
:1030B0002DE9F04104462068C5692068066820684B
:1030C000876805F00F08B8F1000F0AD105F020005D
:1030D00038B106F0200020B1204600F0D9FDBDE84F
:1030E000F081B8F1000F79D040F20110384000288B
:1030F00074D005F0010048B106F4807030B10120B1
:1031000021680862E06E40F00100E06605F0020010
:1031100048B107F0010030B1022021680862E06E7A
:1031200040F00400E06605F0040048B107F001003B
:1031300030B1042021680862E06E40F00200E066D1
:1031400005F0080060B106F0200010B907F001009A
:1031500030B1082021680862E06E40F00800E066A7
:10316000E06E58B305F0200028B106F0200010B141
:10317000204600F08DFDE06E00F0080020B92068C8
:10318000806800F0400018B3204600F061FD206820
:10319000806800F04000B8B12068806820F04000EE
:1031A00021688860606E50B11748616E0865606E76
:1031B000FEF754FC10B1606E016D88470DE02046AB
:1031C000FFF76AFF09E009E02046FFF765FF04E02A
:1031D0002046FFF761FF0020E06680E705F08000F1
:1031E00030B106F0800018B1204600F05BFF76E7B2
:1031F00005F0400030B106F0400018B1204600F064
:1032000037FD6CE700BF6AE7393C000810B504469B
:103210000CB9012010BDA06900B100E000BF94F816
:10322000690028B9002084F86800204600F02AF8D8
:10323000242084F869002068006820F001002168DB
:103240000860204600F068FD012800D1E2E7606ACE
:1032500010B1204600F041FC2068406820F4904006
:10326000216848602068806820F02A002168886012
:103270002068006840F0010021680860204600F0E6
:10328000A1FCC7E710B586B00446204920688842F3
:103290003AD100BF1E48006840F001001C49086098
:1032A0000846006800F00100009000BF00BF00BFAA
:1032B00017481430006840F01000154914310860B8
:1032C0000846006800F01000009000BF00BF4815DD
:1032D0000190022002900120039002200490072018
:1032E000059001A90B48FEF789FD4FF4806001901D
:1032F00001A90848FEF782FD2520FEF7D0FE032233
:1033000011462520FEF7D8FE06B010BD0010014082
:10331000303802400000024010B5034693F86A00BE
:1033200020285BD101B10AB9012010BD00BF93F87C
:103330006800012801D10220F7E7012083F8680026
:1033400000BF5965A3F85820A3F85A2000BF986819
:10335000B0F5805F0AD1186920B940F2FF10A3F8D8
:103360005C001CE0FF20A3F85C0018E0986848B9F6
:10337000186918B9FF20A3F85C0010E07F20A3F8BB
:103380005C000CE09868B0F1805F08D1186918B94A
:103390007F20A3F85C0002E03F20A3F85C0000BFA0
:1033A0000020D866222083F86A0000BF002083F83E
:1033B000680000BF1868006840F480701C682060D6
:1033C0001868806840F001001C68A06018680068F8
:1033D00040F020001C6820600020A6E70220A4E73F
:1033E0001D4A0168914236D11C49098801F4004107
:1033F00089BB1A49098801F4804171B118490978DB
:103400000A2903D00021154A118024E013490988B4
:1034100041F40041114A11801DE0114909780D293C
:1034200006D10E49098841F480410C4A118012E00E
:103430000B490978094A1288C2F30D02094B9954C5
:1034400006490988491C054A118011460988C7297F
:1034500001DD002111807047001001400C000220A6
:103460000E00022084000220704700BFFEE700002B
:1034700000B587B000BF2448006840F00100224931
:1034800008600846006800F00100019000BF00BF1E
:1034900000BF0846006840F0040008600846006865
:1034A00000F00400019000BF00BF00BF08460068A4
:1034B00040F0800008600846006800F0800001903D
:1034C00000BF00BF01200290002003900220049062
:1034D0000320059002A90D48FEF790FC4FF4005020
:1034E000029000200390012004900320059002A97F
:1034F0000748FEF783FC0C20029002A90548FEF75E
:103500007DFC07B000BD00003038024000000240E2
:1035100000080240001C024000B587B000BF1248FE
:10352000006840F00200104908600846006800F09A
:103530000200019000BF00BF032002900120039011
:1035400004900320059002A90848FEF757FC0122C9
:1035500011460648FEF766FD012202210348FEF7E8
:1035600061FD07B000BD0000303802400004024099
:1035700000BFFEE77047000002480068C0F3022069
:10358000704700000CED00E010B5002807DA0A07CC
:10359000140E054A00F00F031B1FD45403E00A0762
:1035A000130E024A135410BD18ED00E000E400E0D1
:1035B0007047000010B50023234C236000BF00BFFC
:1035C00000BFBFF34F8F00BF00BF00BF231F1868AD
:1035D000C0F34E3100BFC0F3C90200BF43F6E07331
:1035E00003EA41134FF0404404EA82742343174C2A
:1035F000236000BF00BF1300A2F10102EED10B0057
:10360000A1F10101E7D100BF00BF00BFBFF34F8FA1
:1036100000BF00BF00BF0C4B703B1B6843F48033FE
:10362000094C703C236000BF00BF00BFBFF34F8F49
:1036300000BF00BF00BF00BF00BF00BFBFF36F8F60
:1036400000BF00BF00BF10BD84ED00E060EF00E0F0
:10365000704700002DE9F04194B0054688461646B3
:103660001F46002400BF2648006840F080502449CF
:1036700008600846006800F08050019000BF00BF5D
:1036800000BF2048006840F440401E4908600846DA
:10369000006800F44040019000BF00BF0120079087
:1036A0000004089002200D9041050E91CDF83C8059
:1036B00010951196129707A8FEF7FEFE04460CB16E
:1036C00000BFFEE7FEF74AFD04460CB100BFFEE76F
:1036D0000F20029002200390002004904FF4A0508D
:1036E00005904FF480500690072102A8FEF77EFD5A
:1036F00004460CB100BFFEE714B0BDE8F081000045
:10370000403802400070004010B5FEF797FC10BD35
:103710001448006840F470001249086012480068BC
:1037200040F001001049086000200F49083108608E
:103730000D4800680D4908400B4908600C48091DF8
:103740000860081F006820F48020091F086000201E
:1037500005490C3108604FF000600249803908606B
:103760007047000088ED00E000380240FFFFF6FEE1
:103770001030002470B505460C464FF080401049CB
:1037800008600846446000218160C5600161032033
:103790000C49086002204860012088600020C86051
:1037A000086102204861012088610020C861086228
:1037B0000348FFF719F93C210148FFF7F7F970BDFD
:1037C000E80202202403022070B505460C46124888
:1037D000124908600846446000218160C5600161AB
:1037E000FFF7ECFA02200E49086001204860002033
:1037F0008860C86004220948FFF770FA042107486E
:10380000FFF734FB05480068C06840F00100034939
:103810000968C86070BD0000000400403C0202203E
:103820007802022010B50248FFF756FB10BD0000D9
:103830003C02022070B505460C461148114908604B
:103840000846446000218160C560016103200E4983
:10385000086002204860012088600020C86008617C
:1038600002204861012088610020C8610862054883
:10387000FFF7BAF83C210348FFF798F970BD000044
:10388000000C004088020220C402022000220268CC
:103890002C4B98420ED0B0F1804F0BD02A4B98425F
:1038A00008D02A4B984205D0294B984202D0294B88
:1038B000984201D1012300E000231BB122F07002E5
:1038C0004B681A431F4B984220D0B0F1804F1DD057
:1038D0001D4B98421AD01D4B984217D01C4B984252
:1038E00014D01C4B984211D01B4B98420ED01B4B4E
:1038F00098420BD01A4B984208D01A4B984205D0E8
:10390000194B984202D0194B984201D1012300E093
:1039100000231BB122F44072CB681A4302608B680B
:10392000C3620B688362074B984202D0094B9842EE
:1039300001D1012300E000230BB10B6903630123D4
:10394000436170470000014000040040000800404F
:10395000000C0040000401400040014000440140D0
:103960000048014000180040001C004000200040BA
:1039700030B50023012404FA01F3046A9C43046275
:10398000046A02FA01F52C43046230BD70B50C469E
:10399000154600210022066A26F0010606628169AA
:1039A000026A184EB04214D0B0F1804F11D0164EBA
:1039B000B0420ED0154EB0420BD0154EB04208D0DA
:1039C000144EB04205D0144EB04202D0134EB04255
:1039D00001D1012600E000261EB121F00301294398
:1039E00001E041F0010121F0F001F02606EA0316A2
:1039F000314322F00A0204F00A0632438161026276
:103A000070BD0000000001400004004000080040BC
:103A1000000C00400004014000400140001800403C
:103A200070B50C46154600210022066A26F01006E5
:103A300006628169026A21F4407141EA052121F49C
:103A400070414FF4704606EA0336314322F0A0027B
:103A5000A02606EA041632438161026270BD70B589
:103A60000C46154600210022066A26F4807606627E
:103A7000C169026A21F00301294321F0F001F02617
:103A800006EA0316314322F420624FF4206606EA68
:103A900004263243C161026270BD70B50C46154602
:103AA00000210022066A26F480560662C169026A75
:103AB00021F4407141EA052121F470414FF4704630
:103AC00006EA0336314322F420424FF4204606EA48
:103AD00004363243C161026270BD90F8241001F0D7
:103AE000010139B10168496821F40031826A11434A
:103AF0000268516090F8241001F0020139B10168A8
:103B0000496821F48031C26A11430268516090F81B
:103B1000241001F0040139B10168496821F48021C1
:103B2000026B11430268516090F8241001F0080103
:103B300039B10168496821F40041426B11430268C0
:103B4000516090F8241001F0100139B101688968C2
:103B500021F48051826B11430268916090F8241027
:103B600001F0200139B10168896821F40051C26B6C
:103B700011430268916090F8241001F0400199B15E
:103B80000168496821F48011026C11430268516098
:103B9000016CB1F5801F07D10168496821F4C001AB
:103BA000426C11430268516090F8241001F08001CA
:103BB00039B10168496821F40021826C114302681F
:103BC0005160704738B5044600250020E066FEF7D6
:103BD0002FFA05462068006800F0080008280CD17C
:103BE0006FF07E402B4600224FF4001100902046DB
:103BF00000F08DFA08B1032038BD2068006800F09D
:103C0000040004280CD16FF07E402B4600224FF4B4
:103C100080010090204600F07AFA08B10320EBE71B
:103C2000202084F8690084F86A0000BF002084F82E
:103C3000680000BF00BFDFE770B50546AC6B002031
:103C4000A4F85A00A4F852002046FFF725FA70BDE8
:103C50000168096821F4907102681160016889683F
:103C600021F0010102689160202180F86A107047FC
:103C700010B504462068006820F040002168086004
:103C8000202084F869002046FFF7EEFB002010BDDD
:103C900070B50446B4F85C6094F86A00222833D109
:103CA000A068B0F5805F0AD1206940B9656D2068D1
:103CB000406A30402880606D801C606507E02068A5
:103CC000406AF1B20840626D511C61651070B4F831
:103CD0005A00401E80B2A4F85A0098B920680068C3
:103CE00020F49070216808602068806820F001004E
:103CF00021688860202084F86A002046FFF770FB66
:103D0000002070BD0020FCE72068806940F00800BA
:103D1000216888610220F4E72DE9F0470446002578
:103D200010260027A846A9462169A06808436169B2
:103D30000843E16940EA010520680068CD49084070
:103D40002843216808602068406820F44050E168FA
:103D5000084321684860216AA06940EA010520689B
:103D6000806820F4306028432168886000BFC24921
:103D70002068884215D1C148006800F0030030B1C6
:103D8000012808D0022804D0032808D105E0012624
:103D900006E0022604E0042602E0082600E000BF58
:103DA000C1E0B7492068884215D1B448006800F0E6
:103DB0000C0030B1042808D0082804D00C2808D101
:103DC00005E0002606E0022604E0042602E00826BC
:103DD00000E000BFA7E0AB492068884215D1A748A2
:103DE000006800F0300030B1102808D0202804D03E
:103DF000302808D105E0002606E0022604E004266B
:103E000002E0082600E000BF8DE09F49206888425C
:103E100015D19A48006800F0C00030B1402808D0A1
:103E2000802804D0C02808D105E0002606E002263C
:103E300004E0042602E0082600E000BF73E0934996
:103E40002068884218D18D48006800F4407048B15D
:103E5000B0F5807F0AD0B0F5007F05D0B0F5407F87
:103E600008D105E0002606E0022604E0042602E070
:103E7000082600E000BF56E085492068884218D136
:103E80007E48006800F4406048B1B0F5806F0AD009
:103E9000B0F5006F05D0B0F5406F08D105E0012600
:103EA00006E0022604E0042602E0082600E000BF47
:103EB00039E078492068884218D17048006800F4D9
:103EC000405048B1B0F5805F0AD0B0F5005F05D032
:103ED000B0F5405F08D105E0002606E0022604E0C8
:103EE000042602E0082600E000BF1CE06A492068C2
:103EF000884218D16148006800F4404048B1B0F5EC
:103F0000804F0AD0B0F5004F05D0B0F5404F08D132
:103F100005E0002606E0022604E0042602E008266A
:103F200000E000BF00BF00BFE069B0F5004F52D114
:103F3000042E2BD005DC4EB1012E12D0022E3BD127
:103F40001AE0082E2DD0102E36D136E0FEF72EFACC
:103F50004000616800EB5100B0FBF1F01FFA80F8FF
:103F60002EE0FEF739FA4000616800EB5100B0FB2B
:103F7000F1F01FFA80F823E04849606801EB500037
:103F80006168B0FBF1F01FFA80F819E0FEF73AFA29
:103F90004000616800EB5100B0FBF1F01FFA80F8BF
:103FA0000EE04FF48031606801EB50006168B0FBB7
:103FB000F1F01FFA80F803E000BF4FF0010900BFE5
:103FC00000BF4FF6F07008EA0007C8F3420007434D
:103FD0002068C7604AE0042E2CD005DC4EB1012ECB
:103FE00012D0022E3DD11AE0082E2ED0102E38D13C
:103FF00038E0FEF7DBF9616800EB5100B0FBF1F04F
:1040000080B22168C86030E0FEF7E6F9616800EB35
:104010005100B0FBF1F080B22168C86025E0204972
:10402000606801EB50006168B0FBF1F080B221687C
:10403000C8601AE0FEF7E6F9616800EB5100B0FBDA
:10404000F1F080B22168C8600FE04FF40041606871
:1040500001EB50006168B0FBF1F080B22168C860EC
:1040600003E000BF4FF0010900BF00BF4846BDE8B4
:10407000F0870000F369FFEF001001409038024024
:104080000044004000480040004C00400050004008
:104090000014014000780040007C00400048E80126
:1040A0000024F400014691F8690021282DD1B1F8CF
:1040B000520068B90868006820F080000B6818603A
:1040C0000868006840F040000B68186000207047E6
:1040D0008868B0F5805F0BD1086948B9CA6C108850
:1040E000C0F308000B689862C86C801CC86405E0C7
:1040F000CB6C581CC86418780B689862B1F85200F1
:10410000401EA1F852000020E1E70220DFE72DE980
:10411000F04104460D4617469846069E21E0701C65
:10412000F8B12EB1FDF784FFA0EB0800B04218D320
:104130002068006820F4D0702168086020688068DA
:1041400020F0010021688860202084F8690084F84C
:104150006A0000BF002084F8680000BF0320BDE8AB
:10416000F0812068C0692840A84201D1012000E008
:104170000020B842D3D00020F1E7000070B5002441
:104180000F4D1048FEF794FF00BF03E0641CAC42E3
:1041900000D904E00B48FEF780FF2028F6D100BFCD
:1041A000002403E0641CAC4200D906E00122064969
:1041B0000448FFF7B1F80028F4D100BF70BD00003B
:1041C000FFFF01004C0102200E00022000BFFEE7AD
:1041D00003B401984100009850EAC12018BF0420A0
:1041E0004A0D18BF40F0010040F2FF72B2EB515F80
:1041F00008BF40F00200012808BF052002B0704748
:1042000000BF704710B504460420FEF7BDFB01480F
:10421000046010BD0400022030B50446002504E00F
:104220004FF47A7000F004F86D1CA542F8D330BD4D
:1042300070B5034600224FF0E02675690D4E3668D2
:1042400003FB06F44FF0E026B16910E04FF0E026E2
:10425000B06988420BD0884202D20E1A324402E082
:104260002E1A0E4432440146A24200D300E0EDE78C
:1042700000BF70BD0400022000BF054AD26902F0F1
:104280004002002AF9D0C2B2014B9A627047000086
:10429000001001400EB520A0006802901FA0006829
:1042A0000190002400BFFDF733F8FDF7CFFE09238E
:1042B000022219214FF4D870FFF7CCF9D820FFF76C
:1042C000A1FF4FF4E13000F02BF8FFF725F9FFF7DD
:1042D000CFF8FDF76FF8002003234FF42022D10020
:1042E0000090FCF7A1FF0021881EFFF7A3FA002130
:1042F000881EFFF73FFA00216B20FFF765FA224680
:10430000022102A8FCF7D6FF2246022101A8FCF7F1
:10431000D1FF00BFFEE700008001000001010000A6
:1043200010B5044609480A4908600846446000215F
:104330008160C160016181610C214161FEF766FF0E
:10434000012204490248FEF7E7FF10BD00100140BA
:104350004C0102200E00022010B500290AD0087876
:10436000002807D005487844FCF76CFB002801D0F2
:10437000002010BD0248784410BD0000320100004A
:104380002A0100004FF04070E1EE100A7047FCF780
:10439000CCB8000000000000000001020304060782
:1043A0000809000000000102030400002F60600003
:1043B000030000002B406000050000002B4060005F
:1043C0000F0000002F606000080000002B4060001C
:1043D0000500000023866000030000002B40600001
:1043E0007F00000002400000000000A0000000006C
:1043F00005400000000000C8000000000C40000064
:104400000000409C00000000194000000020BCBEDD
:104410000000000034400000BFC91B8E00000004F3
:10442000B5400000504BCFD06607E2CF010000003E
:104430006C4100003E8251AADFEEA734010000006B
:10444000D9420000DCB5A0E23A301F97FFFFFFFF22
:10445000B4450000FD25A0C8E9A3C14FFFFFFFFF41
:10446000FF3F00000000008000000000FF3F000050
:104470000000008000000000B4440008000002209A
:10448000840000003402000838450008840002203F
:1044900024090000500200081C0000004300000036
:1044A000F8FFFFFF0C0000000E0000000F000000EE
:1044B0002E0000000024F4000000000000000000B6
:1044C00000000000000000000000000000000000EC
:1044D00000000000000000000000000000000000DC
:1044E00000000000000000000000000000000000CC
:1044F00000000000000000000000000001010000BA
:1045000000000000000000000000000000000000AB
:10451000000000000000000000000000000000009B
:104520000000000000000000000000000500000086
:0845300000007F000000000004
:04000005080001F9F5
:00000001FF
